{
  "transactions": [
    {
      "hash": "0x51b99bba379beec3c7a5a5c1c9fc67800057181f42ee22fe872feb2e3f7d2f53",
      "transactionType": "CALL",
      "contractName": null,
      "contractAddress": "0x5fbdb2315678afecb367f032d93f642f64180aa3",
      "function": "updatePriceFeeds(bytes[])",
      "arguments": [
        "[0xff61491a931112ddf1bd8147cd1b641375f79f5825126d665480874634fd0ace0000000000000000000000000000000000000000000000000000002e90edd0000000000000000000000000000000000000000000000000000000000002faf080fffffffffffffffffffffffffffffffffffffffffffffffffffffffffffffff80000000000000000000000000000000000000000000000000000000068d8155b0000000000000000000000000000000000000000000000000000002e90edd0000000000000000000000000000000000000000000000000000000000002faf080fffffffffffffffffffffffffffffffffffffffffffffffffffffffffffffff80000000000000000000000000000000000000000000000000000000068d8155b]"
      ],
      "transaction": {
        "from": "0xf39fd6e51aad88f6f4ce6ab8827279cfffb92266",
        "to": "0x5fbdb2315678afecb367f032d93f642f64180aa3",
        "gas": "0x13af2",
        "value": "0x0",
        "input": "0xef9e5e280000000000000000000000000000000000000000000000000000000000000020000000000000000000000000000000000000000000000000000000000000000100000000000000000000000000000000000000000000000000000000000000200000000000000000000000000000000000000000000000000000000000000120ff61491a931112ddf1bd8147cd1b641375f79f5825126d665480874634fd0ace0000000000000000000000000000000000000000000000000000002e90edd0000000000000000000000000000000000000000000000000000000000002faf080fffffffffffffffffffffffffffffffffffffffffffffffffffffffffffffff80000000000000000000000000000000000000000000000000000000068d8155b0000000000000000000000000000000000000000000000000000002e90edd0000000000000000000000000000000000000000000000000000000000002faf080fffffffffffffffffffffffffffffffffffffffffffffffffffffffffffffff80000000000000000000000000000000000000000000000000000000068d8155b",
        "nonce": "0x4",
        "chainId": "0x7a6a"
      },
      "additionalContracts": [],
      "isFixedGasLimit": false
    }
  ],
  "receipts": [
    {
      "status": "0x1",
      "cumulativeGasUsed": "0xe404",
      "logs": [
        {
          "address": "0x5fbdb2315678afecb367f032d93f642f64180aa3",
          "topics": [
            "0xd06a6b7f4918494b3719217d1802786c1f5112a6c1d88fe2cfec00b4584f6aec",
            "0xff61491a931112ddf1bd8147cd1b641375f79f5825126d665480874634fd0ace"
          ],
          "data": "0x0000000000000000000000000000000000000000000000000000000068d8151a0000000000000000000000000000000000000000000000000000002e90edd0000000000000000000000000000000000000000000000000000000000002faf080",
          "blockHash": "0x856bce08f95a4aadaf6bb355a6e0d0776930a7fd9b1c91a50df1e5aadeda74e1",
          "blockNumber": "0x4",
          "blockTimestamp": "0x68d816d8",
          "transactionHash": "0x51b99bba379beec3c7a5a5c1c9fc67800057181f42ee22fe872feb2e3f7d2f53",
          "transactionIndex": "0x0",
          "logIndex": "0x0",
          "removed": false
        },
        {
          "address": "0x5fbdb2315678afecb367f032d93f642f64180aa3",
          "topics": [
            "0x943f0e8a16c19895fb87cbeb1a349ed86d7f31923089dd36c1a1ed5e300f267b"
          ],
          "data": "0x00000000000000000000000000000000000000000000000000000000000000010000000000000000000000000000000000000000000000000000000000000001",
          "blockHash": "0x856bce08f95a4aadaf6bb355a6e0d0776930a7fd9b1c91a50df1e5aadeda74e1",
          "blockNumber": "0x4",
          "blockTimestamp": "0x68d816d8",
          "transactionHash": "0x51b99bba379beec3c7a5a5c1c9fc67800057181f42ee22fe872feb2e3f7d2f53",
          "transactionIndex": "0x0",
          "logIndex": "0x1",
          "removed": false
        }
      ],
      "logsBloom": "0x00000000000000000000002000000000000000000000000000000000002000000000000000000000000000000000000000010000000000000000000000000000000000000100000000000000000000000000000000000000000000000002000000000040040000000000000000000000000000000000000000000000000000000000000000000000000000000000000000000000000000000000000200000000000000000000000000000000000000000000000000000001000000000000000000000040000000000000000000002000000000000000000000000000000000000000000000000000000000000000004000000000000000000000000000000000",
      "type": "0x2",
      "transactionHash": "0x51b99bba379beec3c7a5a5c1c9fc67800057181f42ee22fe872feb2e3f7d2f53",
      "transactionIndex": "0x0",
      "blockHash": "0x856bce08f95a4aadaf6bb355a6e0d0776930a7fd9b1c91a50df1e5aadeda74e1",
      "blockNumber": "0x4",
      "gasUsed": "0xe404",
      "effectiveGasPrice": "0x2a0bdbc4",
      "blobGasPrice": "0x1",
      "from": "0xf39fd6e51aad88f6f4ce6ab8827279cfffb92266",
      "to": "0x5fbdb2315678afecb367f032d93f642f64180aa3",
      "contractAddress": null
    }
  ],
  "libraries": [],
  "pending": [],
  "returns": {},
  "timestamp": 1758992088460,
  "chain": 31338,
  "commit": "dfa12bd"
}